{
  "_format": "hh-sol-artifact-1",
  "contractName": "MyEpicNFT",
  "sourceName": "contracts/MyEpicNFT.sol",
  "abi": [
    {
      "inputs": [],
      "stateMutability": "nonpayable",
      "type": "constructor"
    },
    {
      "anonymous": false,
      "inputs": [
        {
          "indexed": true,
          "internalType": "address",
          "name": "owner",
          "type": "address"
        },
        {
          "indexed": true,
          "internalType": "address",
          "name": "approved",
          "type": "address"
        },
        {
          "indexed": true,
          "internalType": "uint256",
          "name": "tokenId",
          "type": "uint256"
        }
      ],
      "name": "Approval",
      "type": "event"
    },
    {
      "anonymous": false,
      "inputs": [
        {
          "indexed": true,
          "internalType": "address",
          "name": "owner",
          "type": "address"
        },
        {
          "indexed": true,
          "internalType": "address",
          "name": "operator",
          "type": "address"
        },
        {
          "indexed": false,
          "internalType": "bool",
          "name": "approved",
          "type": "bool"
        }
      ],
      "name": "ApprovalForAll",
      "type": "event"
    },
    {
      "anonymous": false,
      "inputs": [
        {
          "indexed": false,
          "internalType": "address",
          "name": "sender",
          "type": "address"
        },
        {
          "indexed": false,
          "internalType": "uint256",
          "name": "tokenId",
          "type": "uint256"
        }
      ],
      "name": "NewEpicNFTMinted",
      "type": "event"
    },
    {
      "anonymous": false,
      "inputs": [
        {
          "indexed": true,
          "internalType": "address",
          "name": "from",
          "type": "address"
        },
        {
          "indexed": true,
          "internalType": "address",
          "name": "to",
          "type": "address"
        },
        {
          "indexed": true,
          "internalType": "uint256",
          "name": "tokenId",
          "type": "uint256"
        }
      ],
      "name": "Transfer",
      "type": "event"
    },
    {
      "inputs": [
        {
          "internalType": "address",
          "name": "to",
          "type": "address"
        },
        {
          "internalType": "uint256",
          "name": "tokenId",
          "type": "uint256"
        }
      ],
      "name": "approve",
      "outputs": [],
      "stateMutability": "nonpayable",
      "type": "function"
    },
    {
      "inputs": [
        {
          "internalType": "address",
          "name": "owner",
          "type": "address"
        }
      ],
      "name": "balanceOf",
      "outputs": [
        {
          "internalType": "uint256",
          "name": "",
          "type": "uint256"
        }
      ],
      "stateMutability": "view",
      "type": "function"
    },
    {
      "inputs": [
        {
          "internalType": "uint256",
          "name": "tokenId",
          "type": "uint256"
        }
      ],
      "name": "getApproved",
      "outputs": [
        {
          "internalType": "address",
          "name": "",
          "type": "address"
        }
      ],
      "stateMutability": "view",
      "type": "function"
    },
    {
      "inputs": [],
      "name": "getMintedTokenCount",
      "outputs": [
        {
          "internalType": "uint256",
          "name": "",
          "type": "uint256"
        }
      ],
      "stateMutability": "view",
      "type": "function"
    },
    {
      "inputs": [
        {
          "internalType": "address",
          "name": "owner",
          "type": "address"
        },
        {
          "internalType": "address",
          "name": "operator",
          "type": "address"
        }
      ],
      "name": "isApprovedForAll",
      "outputs": [
        {
          "internalType": "bool",
          "name": "",
          "type": "bool"
        }
      ],
      "stateMutability": "view",
      "type": "function"
    },
    {
      "inputs": [],
      "name": "makeAnEpicNFT",
      "outputs": [],
      "stateMutability": "nonpayable",
      "type": "function"
    },
    {
      "inputs": [],
      "name": "name",
      "outputs": [
        {
          "internalType": "string",
          "name": "",
          "type": "string"
        }
      ],
      "stateMutability": "view",
      "type": "function"
    },
    {
      "inputs": [
        {
          "internalType": "uint256",
          "name": "tokenId",
          "type": "uint256"
        }
      ],
      "name": "ownerOf",
      "outputs": [
        {
          "internalType": "address",
          "name": "",
          "type": "address"
        }
      ],
      "stateMutability": "view",
      "type": "function"
    },
    {
      "inputs": [
        {
          "internalType": "uint256",
          "name": "tokenId",
          "type": "uint256"
        }
      ],
      "name": "pickRandomColor",
      "outputs": [
        {
          "internalType": "string",
          "name": "",
          "type": "string"
        }
      ],
      "stateMutability": "view",
      "type": "function"
    },
    {
      "inputs": [
        {
          "internalType": "uint256",
          "name": "tokenId",
          "type": "uint256"
        }
      ],
      "name": "pickRandomFirstWord",
      "outputs": [
        {
          "internalType": "string",
          "name": "",
          "type": "string"
        }
      ],
      "stateMutability": "view",
      "type": "function"
    },
    {
      "inputs": [
        {
          "internalType": "uint256",
          "name": "tokenId",
          "type": "uint256"
        }
      ],
      "name": "pickRandomSecondWord",
      "outputs": [
        {
          "internalType": "string",
          "name": "",
          "type": "string"
        }
      ],
      "stateMutability": "view",
      "type": "function"
    },
    {
      "inputs": [
        {
          "internalType": "uint256",
          "name": "tokenId",
          "type": "uint256"
        }
      ],
      "name": "pickRandomThirdWord",
      "outputs": [
        {
          "internalType": "string",
          "name": "",
          "type": "string"
        }
      ],
      "stateMutability": "view",
      "type": "function"
    },
    {
      "inputs": [
        {
          "internalType": "address",
          "name": "from",
          "type": "address"
        },
        {
          "internalType": "address",
          "name": "to",
          "type": "address"
        },
        {
          "internalType": "uint256",
          "name": "tokenId",
          "type": "uint256"
        }
      ],
      "name": "safeTransferFrom",
      "outputs": [],
      "stateMutability": "nonpayable",
      "type": "function"
    },
    {
      "inputs": [
        {
          "internalType": "address",
          "name": "from",
          "type": "address"
        },
        {
          "internalType": "address",
          "name": "to",
          "type": "address"
        },
        {
          "internalType": "uint256",
          "name": "tokenId",
          "type": "uint256"
        },
        {
          "internalType": "bytes",
          "name": "_data",
          "type": "bytes"
        }
      ],
      "name": "safeTransferFrom",
      "outputs": [],
      "stateMutability": "nonpayable",
      "type": "function"
    },
    {
      "inputs": [
        {
          "internalType": "address",
          "name": "operator",
          "type": "address"
        },
        {
          "internalType": "bool",
          "name": "approved",
          "type": "bool"
        }
      ],
      "name": "setApprovalForAll",
      "outputs": [],
      "stateMutability": "nonpayable",
      "type": "function"
    },
    {
      "inputs": [
        {
          "internalType": "bytes4",
          "name": "interfaceId",
          "type": "bytes4"
        }
      ],
      "name": "supportsInterface",
      "outputs": [
        {
          "internalType": "bool",
          "name": "",
          "type": "bool"
        }
      ],
      "stateMutability": "view",
      "type": "function"
    },
    {
      "inputs": [],
      "name": "symbol",
      "outputs": [
        {
          "internalType": "string",
          "name": "",
          "type": "string"
        }
      ],
      "stateMutability": "view",
      "type": "function"
    },
    {
      "inputs": [
        {
          "internalType": "uint256",
          "name": "tokenId",
          "type": "uint256"
        }
      ],
      "name": "tokenURI",
      "outputs": [
        {
          "internalType": "string",
          "name": "",
          "type": "string"
        }
      ],
      "stateMutability": "view",
      "type": "function"
    },
    {
      "inputs": [
        {
          "internalType": "address",
          "name": "from",
          "type": "address"
        },
        {
          "internalType": "address",
          "name": "to",
          "type": "address"
        },
        {
          "internalType": "uint256",
          "name": "tokenId",
          "type": "uint256"
        }
      ],
      "name": "transferFrom",
      "outputs": [],
      "stateMutability": "nonpayable",
      "type": "function"
    }
  ],
  "bytecode": "0x608060405260405180610100016040528060d3815260200162004aed60d39139600890805190602001906200003692919062000ccc565b5060405180608001604052806056815260200162004bc060569139600990805190602001906200006892919062000ccc565b506040518061018001604052806040518060400160405280600381526020017f426967000000000000000000000000000000000000000000000000000000000081525081526020016040518060400160405280600581526020017f536d616c6c00000000000000000000000000000000000000000000000000000081525081526020016040518060400160405280600481526020017f487567650000000000000000000000000000000000000000000000000000000081525081526020016040518060400160405280600481526020017f54696e790000000000000000000000000000000000000000000000000000000081525081526020016040518060400160405280600781526020017f4d6173736976650000000000000000000000000000000000000000000000000081525081526020016040518060400160405280600481526020017f4d696e690000000000000000000000000000000000000000000000000000000081525081526020016040518060400160405280600881526020017f436f6c6f7373616c00000000000000000000000000000000000000000000000081525081526020016040518060400160405280600881526020017f456e6f726d6f757300000000000000000000000000000000000000000000000081525081526020016040518060400160405280600981526020017f4d6f6e7374726f7573000000000000000000000000000000000000000000000081525081526020016040518060400160405280600b81526020017f4d6963726f73636f70696300000000000000000000000000000000000000000081525081526020016040518060400160405280600581526020017f5465656e7900000000000000000000000000000000000000000000000000000081525081526020016040518060400160405280600981526020017f4d696e757363756c650000000000000000000000000000000000000000000000815250815250600a90600c6200034992919062000d5d565b50604051806101a001604052806040518060400160405280600381526020017f436174000000000000000000000000000000000000000000000000000000000081525081526020016040518060400160405280600381526020017f446f67000000000000000000000000000000000000000000000000000000000081525081526020016040518060400160405280600481526020017f426972640000000000000000000000000000000000000000000000000000000081525081526020016040518060400160405280600581526020017f4d6f75736500000000000000000000000000000000000000000000000000000081525081526020016040518060400160405280600581526020017f486f72736500000000000000000000000000000000000000000000000000000081525081526020016040518060400160405280600681526020017f4d6f6e6b6579000000000000000000000000000000000000000000000000000081525081526020016040518060400160405280600381526020017f436f77000000000000000000000000000000000000000000000000000000000081525081526020016040518060400160405280600781526020017f476f72696c6c610000000000000000000000000000000000000000000000000081525081526020016040518060400160405280600481526020017f42756c6c0000000000000000000000000000000000000000000000000000000081525081526020016040518060400160405280600481526020017f426561720000000000000000000000000000000000000000000000000000000081525081526020016040518060400160405280600681526020017f506172726f74000000000000000000000000000000000000000000000000000081525081526020016040518060400160405280600581526020017f536e616b6500000000000000000000000000000000000000000000000000000081525081526020016040518060400160405280600681526020017f5261626269740000000000000000000000000000000000000000000000000000815250815250600b90600d6200066592919062000dc4565b506040518061016001604052806040518060400160405280600581526020017f546f77657200000000000000000000000000000000000000000000000000000081525081526020016040518060400160405280600581526020017f486f75736500000000000000000000000000000000000000000000000000000081525081526020016040518060400160405280600781526020017f4d616e73696f6e0000000000000000000000000000000000000000000000000081525081526020016040518060400160405280600581526020017f536861636b00000000000000000000000000000000000000000000000000000081525081526020016040518060400160405280600481526020017f546f776e0000000000000000000000000000000000000000000000000000000081525081526020016040518060400160405280600481526020017f436974790000000000000000000000000000000000000000000000000000000081525081526020016040518060400160405280600681526020017f436f756e7479000000000000000000000000000000000000000000000000000081525081526020016040518060400160405280600781526020017f436f756e7472790000000000000000000000000000000000000000000000000081525081526020016040518060400160405280600881526020017f50726f76696e636500000000000000000000000000000000000000000000000081525081526020016040518060400160405280600581526020017f537461746500000000000000000000000000000000000000000000000000000081525081526020016040518060400160405280600781526020017f56696c6c61676500000000000000000000000000000000000000000000000000815250815250600c90600b6200090b92919062000e2b565b506040518061010001604052806040518060400160405280600381526020017f726564000000000000000000000000000000000000000000000000000000000081525081526020016040518060400160405280600781526020017f233038433241380000000000000000000000000000000000000000000000000081525081526020016040518060400160405280600581526020017f626c61636b00000000000000000000000000000000000000000000000000000081525081526020016040518060400160405280600681526020017f79656c6c6f77000000000000000000000000000000000000000000000000000081525081526020016040518060400160405280600481526020017f626c75650000000000000000000000000000000000000000000000000000000081525081526020016040518060400160405280600581526020017f677265656e00000000000000000000000000000000000000000000000000000081525081526020016040518060400160405280600781526020017f236434616633370000000000000000000000000000000000000000000000000081525081526020016040518060400160405280600781526020017f2338303030383000000000000000000000000000000000000000000000000000815250815250600d90600862000b0092919062000e92565b5034801562000b0e57600080fd5b506040518060400160405280600981526020017f5371756172654e465400000000000000000000000000000000000000000000008152506040518060400160405280600681526020017f5351554152450000000000000000000000000000000000000000000000000000815250816000908051906020019062000b9392919062000ccc565b50806001908051906020019062000bac92919062000ccc565b50505062000bfa6040518060400160405280601e81526020017f54686973206973206d79204e465420636f6e74726163742e20576f616821000081525062000c0060201b620012021760201c565b620010b3565b62000ca08160405160240162000c17919062000fc7565b6040516020818303038152906040527f41304fac000000000000000000000000000000000000000000000000000000007bffffffffffffffffffffffffffffffffffffffffffffffffffffffff19166020820180517bffffffffffffffffffffffffffffffffffffffffffffffffffffffff838183161783525050505062000ca360201b60201c565b50565b60008151905060006a636f6e736f6c652e6c6f679050602083016000808483855afa5050505050565b82805462000cda906200103d565b90600052602060002090601f01602090048101928262000cfe576000855562000d4a565b82601f1062000d1957805160ff191683800117855562000d4a565b8280016001018555821562000d4a579182015b8281111562000d4957825182559160200191906001019062000d2c565b5b50905062000d59919062000ef9565b5090565b82805482825590600052602060002090810192821562000db1579160200282015b8281111562000db057825182908051906020019062000d9f92919062000ccc565b509160200191906001019062000d7e565b5b50905062000dc0919062000f18565b5090565b82805482825590600052602060002090810192821562000e18579160200282015b8281111562000e1757825182908051906020019062000e0692919062000ccc565b509160200191906001019062000de5565b5b50905062000e27919062000f18565b5090565b82805482825590600052602060002090810192821562000e7f579160200282015b8281111562000e7e57825182908051906020019062000e6d92919062000ccc565b509160200191906001019062000e4c565b5b50905062000e8e919062000f18565b5090565b82805482825590600052602060002090810192821562000ee6579160200282015b8281111562000ee557825182908051906020019062000ed492919062000ccc565b509160200191906001019062000eb3565b5b50905062000ef5919062000f18565b5090565b5b8082111562000f1457600081600090555060010162000efa565b5090565b5b8082111562000f3c576000818162000f32919062000f40565b5060010162000f19565b5090565b50805462000f4e906200103d565b6000825580601f1062000f62575062000f83565b601f01602090049060005260206000209081019062000f82919062000ef9565b5b50565b600062000f938262000feb565b62000f9f818562000ff6565b935062000fb181856020860162001007565b62000fbc81620010a2565b840191505092915050565b6000602082019050818103600083015262000fe3818462000f86565b905092915050565b600081519050919050565b600082825260208201905092915050565b60005b83811015620010275780820151818401526020810190506200100a565b8381111562001037576000848401525b50505050565b600060028204905060018216806200105657607f821691505b602082108114156200106d576200106c62001073565b5b50919050565b7f4e487b7100000000000000000000000000000000000000000000000000000000600052602260045260246000fd5b6000601f19601f8301169050919050565b613a2a80620010c36000396000f3fe608060405234801561001057600080fd5b50600436106101215760003560e01c806370a08231116100ad578063b88d4fde11610071578063b88d4fde14610340578063c575757a1461035c578063c87b56dd1461038c578063de9d132f146103bc578063e985e9c5146103c657610121565b806370a08231146102885780638671bc8b146102b857806395d89b41146102d6578063a22cb465146102f4578063b187301f1461031057610121565b806323b872dd116100f457806323b872dd146101c05780632de38d68146101dc57806342842e0e1461020c578063514dc8c6146102285780636352211e1461025857610121565b806301ffc9a71461012657806306fdde0314610156578063081812fc14610174578063095ea7b3146101a4575b600080fd5b610140600480360381019061013b9190612602565b6103f6565b60405161014d91906132a0565b60405180910390f35b61015e6104d8565b60405161016b91906132bb565b60405180910390f35b61018e60048036038101906101899190612654565b61056a565b60405161019b9190613210565b60405180910390f35b6101be60048036038101906101b991906125c6565b6105ef565b005b6101da60048036038101906101d591906124c0565b610707565b005b6101f660048036038101906101f19190612654565b610767565b60405161020391906132bb565b60405180910390f35b610226600480360381019061022191906124c0565b610885565b005b610242600480360381019061023d9190612654565b6108a5565b60405161024f91906132bb565b60405180910390f35b610272600480360381019061026d9190612654565b6109c3565b60405161027f9190613210565b60405180910390f35b6102a2600480360381019061029d919061245b565b610a75565b6040516102af919061351b565b60405180910390f35b6102c0610b2d565b6040516102cd919061351b565b60405180910390f35b6102de610b3e565b6040516102eb91906132bb565b60405180910390f35b61030e6004803603810190610309919061258a565b610bd0565b005b61032a60048036038101906103259190612654565b610be6565b60405161033791906132bb565b60405180910390f35b61035a6004803603810190610355919061250f565b610d04565b005b61037660048036038101906103719190612654565b610d66565b60405161038391906132bb565b60405180910390f35b6103a660048036038101906103a19190612654565b610e84565b6040516103b391906132bb565b60405180910390f35b6103c4610fd6565b005b6103e060048036038101906103db9190612484565b61116e565b6040516103ed91906132a0565b60405180910390f35b60007f80ac58cd000000000000000000000000000000000000000000000000000000007bffffffffffffffffffffffffffffffffffffffffffffffffffffffff1916827bffffffffffffffffffffffffffffffffffffffffffffffffffffffff191614806104c157507f5b5e139f000000000000000000000000000000000000000000000000000000007bffffffffffffffffffffffffffffffffffffffffffffffffffffffff1916827bffffffffffffffffffffffffffffffffffffffffffffffffffffffff1916145b806104d157506104d08261129b565b5b9050919050565b6060600080546104e7906137ba565b80601f0160208091040260200160405190810160405280929190818152602001828054610513906137ba565b80156105605780601f1061053557610100808354040283529160200191610560565b820191906000526020600020905b81548152906001019060200180831161054357829003601f168201915b5050505050905090565b600061057582611305565b6105b4576040517f08c379a00000000000000000000000000000000000000000000000000000000081526004016105ab9061347b565b60405180910390fd5b6004600083815260200190815260200160002060009054906101000a900473ffffffffffffffffffffffffffffffffffffffff169050919050565b60006105fa826109c3565b90508073ffffffffffffffffffffffffffffffffffffffff168373ffffffffffffffffffffffffffffffffffffffff16141561066b576040517f08c379a0000000000000000000000000000000000000000000000000000000008152600401610662906134db565b60405180910390fd5b8073ffffffffffffffffffffffffffffffffffffffff1661068a611371565b73ffffffffffffffffffffffffffffffffffffffff1614806106b957506106b8816106b3611371565b61116e565b5b6106f8576040517f08c379a00000000000000000000000000000000000000000000000000000000081526004016106ef906133bb565b60405180910390fd5b6107028383611379565b505050565b610718610712611371565b82611432565b610757576040517f08c379a000000000000000000000000000000000000000000000000000000000815260040161074e906134fb565b60405180910390fd5b610762838383611510565b505050565b6060600061079b6107778461176c565b60405160200161078791906131aa565b604051602081830303815290604052611919565b9050600a80549050816107ae9190613835565b9050600a81815481106107ea577f4e487b7100000000000000000000000000000000000000000000000000000000600052603260045260246000fd5b9060005260206000200180546107ff906137ba565b80601f016020809104026020016040519081016040528092919081815260200182805461082b906137ba565b80156108785780601f1061084d57610100808354040283529160200191610878565b820191906000526020600020905b81548152906001019060200180831161085b57829003601f168201915b5050505050915050919050565b6108a083838360405180602001604052806000815250610d04565b505050565b606060006108d96108b58461176c565b6040516020016108c591906131ee565b604051602081830303815290604052611919565b9050600d80549050816108ec9190613835565b9050600d8181548110610928577f4e487b7100000000000000000000000000000000000000000000000000000000600052603260045260246000fd5b90600052602060002001805461093d906137ba565b80601f0160208091040260200160405190810160405280929190818152602001828054610969906137ba565b80156109b65780601f1061098b576101008083540402835291602001916109b6565b820191906000526020600020905b81548152906001019060200180831161099957829003601f168201915b5050505050915050919050565b6000806002600084815260200190815260200160002060009054906101000a900473ffffffffffffffffffffffffffffffffffffffff169050600073ffffffffffffffffffffffffffffffffffffffff168173ffffffffffffffffffffffffffffffffffffffff161415610a6c576040517f08c379a0000000000000000000000000000000000000000000000000000000008152600401610a63906133fb565b60405180910390fd5b80915050919050565b60008073ffffffffffffffffffffffffffffffffffffffff168273ffffffffffffffffffffffffffffffffffffffff161415610ae6576040517f08c379a0000000000000000000000000000000000000000000000000000000008152600401610add906133db565b60405180910390fd5b600360008373ffffffffffffffffffffffffffffffffffffffff1673ffffffffffffffffffffffffffffffffffffffff168152602001908152602001600020549050919050565b6000610b39600761194c565b905090565b606060018054610b4d906137ba565b80601f0160208091040260200160405190810160405280929190818152602001828054610b79906137ba565b8015610bc65780601f10610b9b57610100808354040283529160200191610bc6565b820191906000526020600020905b815481529060010190602001808311610ba957829003601f168201915b5050505050905090565b610be2610bdb611371565b838361195a565b5050565b60606000610c1a610bf68461176c565b604051602001610c069190613143565b604051602081830303815290604052611919565b9050600b8054905081610c2d9190613835565b9050600b8181548110610c69577f4e487b7100000000000000000000000000000000000000000000000000000000600052603260045260246000fd5b906000526020600020018054610c7e906137ba565b80601f0160208091040260200160405190810160405280929190818152602001828054610caa906137ba565b8015610cf75780601f10610ccc57610100808354040283529160200191610cf7565b820191906000526020600020905b815481529060010190602001808311610cda57829003601f168201915b5050505050915050919050565b610d15610d0f611371565b83611432565b610d54576040517f08c379a0000000000000000000000000000000000000000000000000000000008152600401610d4b906134fb565b60405180910390fd5b610d6084848484611ac7565b50505050565b60606000610d9a610d768461176c565b604051602001610d869190613121565b604051602081830303815290604052611919565b9050600c8054905081610dad9190613835565b9050600c8181548110610de9577f4e487b7100000000000000000000000000000000000000000000000000000000600052603260045260246000fd5b906000526020600020018054610dfe906137ba565b80601f0160208091040260200160405190810160405280929190818152602001828054610e2a906137ba565b8015610e775780601f10610e4c57610100808354040283529160200191610e77565b820191906000526020600020905b815481529060010190602001808311610e5a57829003601f168201915b5050505050915050919050565b6060610e8f82611305565b610ece576040517f08c379a0000000000000000000000000000000000000000000000000000000008152600401610ec59061345b565b60405180910390fd5b6000600660008481526020019081526020016000208054610eee906137ba565b80601f0160208091040260200160405190810160405280929190818152602001828054610f1a906137ba565b8015610f675780601f10610f3c57610100808354040283529160200191610f67565b820191906000526020600020905b815481529060010190602001808311610f4a57829003601f168201915b505050505090506000610f78611b23565b9050600081511415610f8e578192505050610fd1565b600082511115610fc3578082604051602001610fab929190613083565b60405160208183030381529060405292505050610fd1565b610fcc84611b3a565b925050505b919050565b6000610fe2600761194c565b90506000610fef82610767565b90506000610ffc83610be6565b9050600061100984610d66565b90506000838383604051602001611022939291906130a7565b6040516020818303038152906040529050600061103e866108a5565b9050600060088260098560405160200161105b94939291906130d8565b604051602081830303815290604052905060006110a08461107b84611be1565b60405160200161108c929190613165565b604051602081830303815290604052611be1565b90506000816040516020016110b591906131cc565b60405160208183030381529060405290506110d0338a611d9f565b6110da8982611dbd565b6110fd604051806060016040528060258152602001613990602591398a33611e31565b6111076007611ed0565b61112a604051806060016040528060258152602001613990602591398a33611e31565b7febb98688741ffa4c7589bf325de30cf7becb63de567842e1ccdb6cb949fdc82c338a60405161115b929190613277565b60405180910390a1505050505050505050565b6000600560008473ffffffffffffffffffffffffffffffffffffffff1673ffffffffffffffffffffffffffffffffffffffff16815260200190815260200160002060008373ffffffffffffffffffffffffffffffffffffffff1673ffffffffffffffffffffffffffffffffffffffff16815260200190815260200160002060009054906101000a900460ff16905092915050565b6112988160405160240161121691906132bb565b6040516020818303038152906040527f41304fac000000000000000000000000000000000000000000000000000000007bffffffffffffffffffffffffffffffffffffffffffffffffffffffff19166020820180517bffffffffffffffffffffffffffffffffffffffffffffffffffffffff8381831617835250505050611ee6565b50565b60007f01ffc9a7000000000000000000000000000000000000000000000000000000007bffffffffffffffffffffffffffffffffffffffffffffffffffffffff1916827bffffffffffffffffffffffffffffffffffffffffffffffffffffffff1916149050919050565b60008073ffffffffffffffffffffffffffffffffffffffff166002600084815260200190815260200160002060009054906101000a900473ffffffffffffffffffffffffffffffffffffffff1673ffffffffffffffffffffffffffffffffffffffff1614159050919050565b600033905090565b816004600083815260200190815260200160002060006101000a81548173ffffffffffffffffffffffffffffffffffffffff021916908373ffffffffffffffffffffffffffffffffffffffff160217905550808273ffffffffffffffffffffffffffffffffffffffff166113ec836109c3565b73ffffffffffffffffffffffffffffffffffffffff167f8c5be1e5ebec7d5bd14f71427d1e84f3dd0314c0f7b2291e5b200ac8c7c3b92560405160405180910390a45050565b600061143d82611305565b61147c576040517f08c379a00000000000000000000000000000000000000000000000000000000081526004016114739061339b565b60405180910390fd5b6000611487836109c3565b90508073ffffffffffffffffffffffffffffffffffffffff168473ffffffffffffffffffffffffffffffffffffffff1614806114f657508373ffffffffffffffffffffffffffffffffffffffff166114de8461056a565b73ffffffffffffffffffffffffffffffffffffffff16145b806115075750611506818561116e565b5b91505092915050565b8273ffffffffffffffffffffffffffffffffffffffff16611530826109c3565b73ffffffffffffffffffffffffffffffffffffffff1614611586576040517f08c379a000000000000000000000000000000000000000000000000000000000815260040161157d9061349b565b60405180910390fd5b600073ffffffffffffffffffffffffffffffffffffffff168273ffffffffffffffffffffffffffffffffffffffff1614156115f6576040517f08c379a00000000000000000000000000000000000000000000000000000000081526004016115ed9061335b565b60405180910390fd5b611601838383611f0f565b61160c600082611379565b6001600360008573ffffffffffffffffffffffffffffffffffffffff1673ffffffffffffffffffffffffffffffffffffffff168152602001908152602001600020600082825461165c91906136d0565b925050819055506001600360008473ffffffffffffffffffffffffffffffffffffffff1673ffffffffffffffffffffffffffffffffffffffff16815260200190815260200160002060008282546116b391906135ef565b92505081905550816002600083815260200190815260200160002060006101000a81548173ffffffffffffffffffffffffffffffffffffffff021916908373ffffffffffffffffffffffffffffffffffffffff160217905550808273ffffffffffffffffffffffffffffffffffffffff168473ffffffffffffffffffffffffffffffffffffffff167fddf252ad1be2c89b69c2b068fc378daa952ba7f163c4a11628f55a4df523b3ef60405160405180910390a4505050565b606060008214156117b4576040518060400160405280600181526020017f30000000000000000000000000000000000000000000000000000000000000008152509050611914565b600082905060005b600082146117e65780806117cf906137ec565b915050600a826117df9190613645565b91506117bc565b60008167ffffffffffffffff811115611828577f4e487b7100000000000000000000000000000000000000000000000000000000600052604160045260246000fd5b6040519080825280601f01601f19166020018201604052801561185a5781602001600182028036833780820191505090505b5090505b6000851461190d5760018261187391906136d0565b9150600a856118829190613835565b603061188e91906135ef565b60f81b8183815181106118ca577f4e487b7100000000000000000000000000000000000000000000000000000000600052603260045260246000fd5b60200101907effffffffffffffffffffffffffffffffffffffffffffffffffffffffffffff1916908160001a905350600a856119069190613645565b945061185e565b8093505050505b919050565b60008160405160200161192c919061306c565b6040516020818303038152906040528051906020012060001c9050919050565b600081600001549050919050565b8173ffffffffffffffffffffffffffffffffffffffff168373ffffffffffffffffffffffffffffffffffffffff1614156119c9576040517f08c379a00000000000000000000000000000000000000000000000000000000081526004016119c09061337b565b60405180910390fd5b80600560008573ffffffffffffffffffffffffffffffffffffffff1673ffffffffffffffffffffffffffffffffffffffff16815260200190815260200160002060008473ffffffffffffffffffffffffffffffffffffffff1673ffffffffffffffffffffffffffffffffffffffff16815260200190815260200160002060006101000a81548160ff0219169083151502179055508173ffffffffffffffffffffffffffffffffffffffff168373ffffffffffffffffffffffffffffffffffffffff167f17307eab39ab6107e8899845ad3d59bd9653f200f220920489ca2b5937696c3183604051611aba91906132a0565b60405180910390a3505050565b611ad2848484611510565b611ade84848484611f14565b611b1d576040517f08c379a0000000000000000000000000000000000000000000000000000000008152600401611b149061331b565b60405180910390fd5b50505050565b606060405180602001604052806000815250905090565b6060611b4582611305565b611b84576040517f08c379a0000000000000000000000000000000000000000000000000000000008152600401611b7b906134bb565b60405180910390fd5b6000611b8e611b23565b90506000815111611bae5760405180602001604052806000815250611bd9565b80611bb88461176c565b604051602001611bc9929190613083565b6040516020818303038152906040525b915050919050565b60606000825190506000811415611c0a5760405180602001604052806000815250915050611d9a565b60006003600283611c1b91906135ef565b611c259190613645565b6004611c319190613676565b90506000602082611c4291906135ef565b67ffffffffffffffff811115611c81577f4e487b7100000000000000000000000000000000000000000000000000000000600052604160045260246000fd5b6040519080825280601f01601f191660200182016040528015611cb35781602001600182028036833780820191505090505b50905060006040518060600160405280604081526020016139b5604091399050600181016020830160005b86811015611d575760038101905062ffffff818a015116603f8160121c168401518060081b905060ff603f83600c1c1686015116810190508060081b905060ff603f8360061c1686015116810190508060081b905060ff603f831686015116810190508060e01b90508084526004840193505050611cde565b506003860660018114611d715760028114611d8157611d8c565b613d3d60f01b6002830352611d8c565b603d60f81b60018303525b508484525050819450505050505b919050565b611db98282604051806020016040528060008152506120ab565b5050565b611dc682611305565b611e05576040517f08c379a0000000000000000000000000000000000000000000000000000000008152600401611dfc9061341b565b60405180910390fd5b80600660008481526020019081526020016000209080519060200190611e2c9291906122e7565b505050565b611ecb838383604051602401611e49939291906132dd565b6040516020818303038152906040527fe3849f79000000000000000000000000000000000000000000000000000000007bffffffffffffffffffffffffffffffffffffffffffffffffffffffff19166020820180517bffffffffffffffffffffffffffffffffffffffffffffffffffffffff8381831617835250505050611ee6565b505050565b6001816000016000828254019250508190555050565b60008151905060006a636f6e736f6c652e6c6f679050602083016000808483855afa5050505050565b505050565b6000611f358473ffffffffffffffffffffffffffffffffffffffff16612106565b1561209e578373ffffffffffffffffffffffffffffffffffffffff1663150b7a02611f5e611371565b8786866040518563ffffffff1660e01b8152600401611f80949392919061322b565b602060405180830381600087803b158015611f9a57600080fd5b505af1925050508015611fcb57506040513d601f19601f82011682018060405250810190611fc8919061262b565b60015b61204e573d8060008114611ffb576040519150601f19603f3d011682016040523d82523d6000602084013e612000565b606091505b50600081511415612046576040517f08c379a000000000000000000000000000000000000000000000000000000000815260040161203d9061331b565b60405180910390fd5b805181602001fd5b63150b7a0260e01b7bffffffffffffffffffffffffffffffffffffffffffffffffffffffff1916817bffffffffffffffffffffffffffffffffffffffffffffffffffffffff1916149150506120a3565b600190505b949350505050565b6120b58383612119565b6120c26000848484611f14565b612101576040517f08c379a00000000000000000000000000000000000000000000000000000000081526004016120f89061331b565b60405180910390fd5b505050565b600080823b905060008111915050919050565b600073ffffffffffffffffffffffffffffffffffffffff168273ffffffffffffffffffffffffffffffffffffffff161415612189576040517f08c379a00000000000000000000000000000000000000000000000000000000081526004016121809061343b565b60405180910390fd5b61219281611305565b156121d2576040517f08c379a00000000000000000000000000000000000000000000000000000000081526004016121c99061333b565b60405180910390fd5b6121de60008383611f0f565b6001600360008473ffffffffffffffffffffffffffffffffffffffff1673ffffffffffffffffffffffffffffffffffffffff168152602001908152602001600020600082825461222e91906135ef565b92505081905550816002600083815260200190815260200160002060006101000a81548173ffffffffffffffffffffffffffffffffffffffff021916908373ffffffffffffffffffffffffffffffffffffffff160217905550808273ffffffffffffffffffffffffffffffffffffffff16600073ffffffffffffffffffffffffffffffffffffffff167fddf252ad1be2c89b69c2b068fc378daa952ba7f163c4a11628f55a4df523b3ef60405160405180910390a45050565b8280546122f3906137ba565b90600052602060002090601f016020900481019282612315576000855561235c565b82601f1061232e57805160ff191683800117855561235c565b8280016001018555821561235c579182015b8281111561235b578251825591602001919060010190612340565b5b509050612369919061236d565b5090565b5b8082111561238657600081600090555060010161236e565b5090565b600061239d61239884613567565b613536565b9050828152602081018484840111156123b557600080fd5b6123c0848285613778565b509392505050565b6000813590506123d781613933565b92915050565b6000813590506123ec8161394a565b92915050565b60008135905061240181613961565b92915050565b60008151905061241681613961565b92915050565b600082601f83011261242d57600080fd5b813561243d84826020860161238a565b91505092915050565b60008135905061245581613978565b92915050565b60006020828403121561246d57600080fd5b600061247b848285016123c8565b91505092915050565b6000806040838503121561249757600080fd5b60006124a5858286016123c8565b92505060206124b6858286016123c8565b9150509250929050565b6000806000606084860312156124d557600080fd5b60006124e3868287016123c8565b93505060206124f4868287016123c8565b925050604061250586828701612446565b9150509250925092565b6000806000806080858703121561252557600080fd5b6000612533878288016123c8565b9450506020612544878288016123c8565b935050604061255587828801612446565b925050606085013567ffffffffffffffff81111561257257600080fd5b61257e8782880161241c565b91505092959194509250565b6000806040838503121561259d57600080fd5b60006125ab858286016123c8565b92505060206125bc858286016123dd565b9150509250929050565b600080604083850312156125d957600080fd5b60006125e7858286016123c8565b92505060206125f885828601612446565b9150509250929050565b60006020828403121561261457600080fd5b6000612622848285016123f2565b91505092915050565b60006020828403121561263d57600080fd5b600061264b84828501612407565b91505092915050565b60006020828403121561266657600080fd5b600061267484828501612446565b91505092915050565b61268681613704565b82525050565b61269581613716565b82525050565b60006126a6826135ac565b6126b081856135c2565b93506126c0818560208601613787565b6126c981613922565b840191505092915050565b60006126df826135b7565b6126e981856135d3565b93506126f9818560208601613787565b61270281613922565b840191505092915050565b6000612718826135b7565b61272281856135e4565b9350612732818560208601613787565b80840191505092915050565b6000815461274b816137ba565b61275581866135e4565b945060018216600081146127705760018114612781576127b4565b60ff198316865281860193506127b4565b61278a85613597565b60005b838110156127ac5781548189015260018201915060208101905061278d565b838801955050505b50505092915050565b60006127ca6032836135d3565b91507f4552433732313a207472616e7366657220746f206e6f6e20455243373231526560008301527f63656976657220696d706c656d656e74657200000000000000000000000000006020830152604082019050919050565b6000612830601c836135d3565b91507f4552433732313a20746f6b656e20616c7265616479206d696e746564000000006000830152602082019050919050565b6000612870600a836135e4565b91507f54484952445f574f5244000000000000000000000000000000000000000000006000830152600a82019050919050565b60006128b06024836135d3565b91507f4552433732313a207472616e7366657220746f20746865207a65726f2061646460008301527f72657373000000000000000000000000000000000000000000000000000000006020830152604082019050919050565b60006129166019836135d3565b91507f4552433732313a20617070726f766520746f2063616c6c6572000000000000006000830152602082019050919050565b60006129566063836135e4565b91507f222c20226465736372697074696f6e223a20224120686967686c79206163636c60008301527f61696d656420636f6c6c656374696f6e206f6620737175617265732e222c202260208301527f696d616765223a2022646174613a696d6167652f7376672b786d6c3b6261736560408301527f36342c00000000000000000000000000000000000000000000000000000000006060830152606382019050919050565b6000612a08600b836135e4565b91507f5345434f4e445f574f52440000000000000000000000000000000000000000006000830152600b82019050919050565b6000612a48602c836135d3565b91507f4552433732313a206f70657261746f7220717565727920666f72206e6f6e657860008301527f697374656e7420746f6b656e00000000000000000000000000000000000000006020830152604082019050919050565b6000612aae600d836135e4565b91507f3c2f746578743e3c2f7376673e000000000000000000000000000000000000006000830152600d82019050919050565b6000612aee6038836135d3565b91507f4552433732313a20617070726f76652063616c6c6572206973206e6f74206f7760008301527f6e6572206e6f7220617070726f76656420666f7220616c6c00000000000000006020830152604082019050919050565b6000612b54602a836135d3565b91507f4552433732313a2062616c616e636520717565727920666f7220746865207a6560008301527f726f2061646472657373000000000000000000000000000000000000000000006020830152604082019050919050565b6000612bba6029836135d3565b91507f4552433732313a206f776e657220717565727920666f72206e6f6e657869737460008301527f656e7420746f6b656e00000000000000000000000000000000000000000000006020830152604082019050919050565b6000612c20602e836135d3565b91507f45524337323155524953746f726167653a2055524920736574206f66206e6f6e60008301527f6578697374656e7420746f6b656e0000000000000000000000000000000000006020830152604082019050919050565b6000612c866002836135e4565b91507f227d0000000000000000000000000000000000000000000000000000000000006000830152600282019050919050565b6000612cc66020836135d3565b91507f4552433732313a206d696e7420746f20746865207a65726f20616464726573736000830152602082019050919050565b6000612d066031836135d3565b91507f45524337323155524953746f726167653a2055524920717565727920666f722060008301527f6e6f6e6578697374656e7420746f6b656e0000000000000000000000000000006020830152604082019050919050565b6000612d6c602c836135d3565b91507f4552433732313a20617070726f76656420717565727920666f72206e6f6e657860008301527f697374656e7420746f6b656e00000000000000000000000000000000000000006020830152604082019050919050565b6000612dd26029836135d3565b91507f4552433732313a207472616e73666572206f6620746f6b656e2074686174206960008301527f73206e6f74206f776e00000000000000000000000000000000000000000000006020830152604082019050919050565b6000612e38602f836135d3565b91507f4552433732314d657461646174613a2055524920717565727920666f72206e6f60008301527f6e6578697374656e7420746f6b656e00000000000000000000000000000000006020830152604082019050919050565b6000612e9e600a836135e4565b91507f7b226e616d65223a2022000000000000000000000000000000000000000000006000830152600a82019050919050565b6000612ede6021836135d3565b91507f4552433732313a20617070726f76616c20746f2063757272656e74206f776e6560008301527f72000000000000000000000000000000000000000000000000000000000000006020830152604082019050919050565b6000612f44600a836135e4565b91507f46495253545f574f5244000000000000000000000000000000000000000000006000830152600a82019050919050565b6000612f84601d836135e4565b91507f646174613a6170706c69636174696f6e2f6a736f6e3b6261736536342c0000006000830152601d82019050919050565b6000612fc46031836135d3565b91507f4552433732313a207472616e736665722063616c6c6572206973206e6f74206f60008301527f776e6572206e6f7220617070726f7665640000000000000000000000000000006020830152604082019050919050565b600061302a6005836135e4565b91507f434f4c4f520000000000000000000000000000000000000000000000000000006000830152600582019050919050565b6130668161376e565b82525050565b6000613078828461270d565b915081905092915050565b600061308f828561270d565b915061309b828461270d565b91508190509392505050565b60006130b3828661270d565b91506130bf828561270d565b91506130cb828461270d565b9150819050949350505050565b60006130e4828761273e565b91506130f0828661270d565b91506130fc828561273e565b9150613108828461270d565b915061311382612aa1565b915081905095945050505050565b600061312c82612863565b9150613138828461270d565b915081905092915050565b600061314e826129fb565b915061315a828461270d565b915081905092915050565b600061317082612e91565b915061317c828561270d565b915061318782612949565b9150613193828461270d565b915061319e82612c79565b91508190509392505050565b60006131b582612f37565b91506131c1828461270d565b915081905092915050565b60006131d782612f77565b91506131e3828461270d565b915081905092915050565b60006131f98261301d565b9150613205828461270d565b915081905092915050565b6000602082019050613225600083018461267d565b92915050565b6000608082019050613240600083018761267d565b61324d602083018661267d565b61325a604083018561305d565b818103606083015261326c818461269b565b905095945050505050565b600060408201905061328c600083018561267d565b613299602083018461305d565b9392505050565b60006020820190506132b5600083018461268c565b92915050565b600060208201905081810360008301526132d581846126d4565b905092915050565b600060608201905081810360008301526132f781866126d4565b9050613306602083018561305d565b613313604083018461267d565b949350505050565b60006020820190508181036000830152613334816127bd565b9050919050565b6000602082019050818103600083015261335481612823565b9050919050565b60006020820190508181036000830152613374816128a3565b9050919050565b6000602082019050818103600083015261339481612909565b9050919050565b600060208201905081810360008301526133b481612a3b565b9050919050565b600060208201905081810360008301526133d481612ae1565b9050919050565b600060208201905081810360008301526133f481612b47565b9050919050565b6000602082019050818103600083015261341481612bad565b9050919050565b6000602082019050818103600083015261343481612c13565b9050919050565b6000602082019050818103600083015261345481612cb9565b9050919050565b6000602082019050818103600083015261347481612cf9565b9050919050565b6000602082019050818103600083015261349481612d5f565b9050919050565b600060208201905081810360008301526134b481612dc5565b9050919050565b600060208201905081810360008301526134d481612e2b565b9050919050565b600060208201905081810360008301526134f481612ed1565b9050919050565b6000602082019050818103600083015261351481612fb7565b9050919050565b6000602082019050613530600083018461305d565b92915050565b6000604051905081810181811067ffffffffffffffff8211171561355d5761355c6138f3565b5b8060405250919050565b600067ffffffffffffffff821115613582576135816138f3565b5b601f19601f8301169050602081019050919050565b60008190508160005260206000209050919050565b600081519050919050565b600081519050919050565b600082825260208201905092915050565b600082825260208201905092915050565b600081905092915050565b60006135fa8261376e565b91506136058361376e565b9250827fffffffffffffffffffffffffffffffffffffffffffffffffffffffffffffffff0382111561363a57613639613866565b5b828201905092915050565b60006136508261376e565b915061365b8361376e565b92508261366b5761366a613895565b5b828204905092915050565b60006136818261376e565b915061368c8361376e565b9250817fffffffffffffffffffffffffffffffffffffffffffffffffffffffffffffffff04831182151516156136c5576136c4613866565b5b828202905092915050565b60006136db8261376e565b91506136e68361376e565b9250828210156136f9576136f8613866565b5b828203905092915050565b600061370f8261374e565b9050919050565b60008115159050919050565b60007fffffffff0000000000000000000000000000000000000000000000000000000082169050919050565b600073ffffffffffffffffffffffffffffffffffffffff82169050919050565b6000819050919050565b82818337600083830152505050565b60005b838110156137a557808201518184015260208101905061378a565b838111156137b4576000848401525b50505050565b600060028204905060018216806137d257607f821691505b602082108114156137e6576137e56138c4565b5b50919050565b60006137f78261376e565b91507fffffffffffffffffffffffffffffffffffffffffffffffffffffffffffffffff82141561382a57613829613866565b5b600182019050919050565b60006138408261376e565b915061384b8361376e565b92508261385b5761385a613895565b5b828206905092915050565b7f4e487b7100000000000000000000000000000000000000000000000000000000600052601160045260246000fd5b7f4e487b7100000000000000000000000000000000000000000000000000000000600052601260045260246000fd5b7f4e487b7100000000000000000000000000000000000000000000000000000000600052602260045260246000fd5b7f4e487b7100000000000000000000000000000000000000000000000000000000600052604160045260246000fd5b6000601f19601f8301169050919050565b61393c81613704565b811461394757600080fd5b50565b61395381613716565b811461395e57600080fd5b50565b61396a81613722565b811461397557600080fd5b50565b6139818161376e565b811461398c57600080fd5b5056fe416e204e465420772f20494420257320686173206265656e206d696e74656420746f2025734142434445464748494a4b4c4d4e4f505152535455565758595a6162636465666768696a6b6c6d6e6f707172737475767778797a303132333435363738392b2fa2646970667358221220ba88443ea841c67050e3ff0ac876bb8a20cb5ae7aae8147c0a4831dc1b934acb64736f6c634300080000333c73766720786d6c6e733d27687474703a2f2f7777772e77332e6f72672f323030302f73766727207072657365727665417370656374526174696f3d27784d696e594d696e206d656574272076696577426f783d273020302033353020333530273e3c7374796c653e2e62617365207b2066696c6c3a2077686974653b20666f6e742d66616d696c793a2073657269663b20666f6e742d73697a653a20323470783b207d3c2f7374796c653e3c726563742077696474683d273130302527206865696768743d2731303025272066696c6c3d27272f3e3c7465787420783d273530252720793d273530252720636c6173733d27626173652720646f6d696e616e742d626173656c696e653d276d6964646c652720746578742d616e63686f723d276d6964646c65273e",
  "linkReferences": {},
  "deployedLinkReferences": {}
}